{
  "_format": "hh-sol-artifact-1",
  "contractName": "Twitter",
  "sourceName": "Contracts/Twitter.sol",
  "abi": [
    {
      "inputs": [],
      "name": "Twitter__UserDonotExist",
      "type": "error"
    },
    {
      "anonymous": false,
      "inputs": [
        {
          "indexed": true,
          "internalType": "address",
          "name": "tweeter",
          "type": "address"
        },
        {
          "components": [
            {
              "internalType": "address",
              "name": "whoTweeted",
              "type": "address"
            },
            {
              "internalType": "string",
              "name": "tweetDescription",
              "type": "string"
            },
            {
              "internalType": "bool",
              "name": "isDeleted",
              "type": "bool"
            },
            {
              "internalType": "bool",
              "name": "isLiked",
              "type": "bool"
            },
            {
              "internalType": "uint256",
              "name": "uniqueid",
              "type": "uint256"
            }
          ],
          "indexed": true,
          "internalType": "struct Twitter.tweet",
          "name": "tweets",
          "type": "tuple"
        }
      ],
      "name": "TweetAdded",
      "type": "event"
    },
    {
      "anonymous": false,
      "inputs": [
        {
          "indexed": true,
          "internalType": "address",
          "name": "tweeter",
          "type": "address"
        },
        {
          "components": [
            {
              "internalType": "address",
              "name": "whoTweeted",
              "type": "address"
            },
            {
              "internalType": "string",
              "name": "tweetDescription",
              "type": "string"
            },
            {
              "internalType": "bool",
              "name": "isDeleted",
              "type": "bool"
            },
            {
              "internalType": "bool",
              "name": "isLiked",
              "type": "bool"
            },
            {
              "internalType": "uint256",
              "name": "uniqueid",
              "type": "uint256"
            }
          ],
          "indexed": true,
          "internalType": "struct Twitter.tweet",
          "name": "tweets",
          "type": "tuple"
        }
      ],
      "name": "TweetDeleted",
      "type": "event"
    },
    {
      "inputs": [
        {
          "internalType": "address",
          "name": "",
          "type": "address"
        },
        {
          "internalType": "uint256",
          "name": "",
          "type": "uint256"
        }
      ],
      "name": "AllTweets",
      "outputs": [
        {
          "internalType": "address",
          "name": "whoTweeted",
          "type": "address"
        },
        {
          "internalType": "string",
          "name": "tweetDescription",
          "type": "string"
        },
        {
          "internalType": "bool",
          "name": "isDeleted",
          "type": "bool"
        },
        {
          "internalType": "bool",
          "name": "isLiked",
          "type": "bool"
        },
        {
          "internalType": "uint256",
          "name": "uniqueid",
          "type": "uint256"
        }
      ],
      "stateMutability": "view",
      "type": "function"
    },
    {
      "inputs": [
        {
          "internalType": "address",
          "name": "",
          "type": "address"
        }
      ],
      "name": "AllUserMapping",
      "outputs": [
        {
          "internalType": "address",
          "name": "userAddress",
          "type": "address"
        },
        {
          "internalType": "string",
          "name": "userName",
          "type": "string"
        },
        {
          "internalType": "string",
          "name": "profileImageUri",
          "type": "string"
        },
        {
          "internalType": "string",
          "name": "BannerImageUri",
          "type": "string"
        },
        {
          "internalType": "bool",
          "name": "isExisting",
          "type": "bool"
        }
      ],
      "stateMutability": "view",
      "type": "function"
    },
    {
      "inputs": [
        {
          "internalType": "string",
          "name": "_tweetDescription",
          "type": "string"
        }
      ],
      "name": "addTweet",
      "outputs": [],
      "stateMutability": "nonpayable",
      "type": "function"
    },
    {
      "inputs": [
        {
          "internalType": "uint256",
          "name": "index",
          "type": "uint256"
        }
      ],
      "name": "deleteTweet",
      "outputs": [],
      "stateMutability": "nonpayable",
      "type": "function"
    },
    {
      "inputs": [],
      "name": "getAllTweetsByUserAfterDeletion",
      "outputs": [
        {
          "components": [
            {
              "internalType": "address",
              "name": "whoTweeted",
              "type": "address"
            },
            {
              "internalType": "string",
              "name": "tweetDescription",
              "type": "string"
            },
            {
              "internalType": "bool",
              "name": "isDeleted",
              "type": "bool"
            },
            {
              "internalType": "bool",
              "name": "isLiked",
              "type": "bool"
            },
            {
              "internalType": "uint256",
              "name": "uniqueid",
              "type": "uint256"
            }
          ],
          "internalType": "struct Twitter.tweet[]",
          "name": "",
          "type": "tuple[]"
        }
      ],
      "stateMutability": "view",
      "type": "function"
    },
    {
      "inputs": [
        {
          "internalType": "string",
          "name": "_BannerImageUri",
          "type": "string"
        }
      ],
      "name": "setUserBannermage",
      "outputs": [],
      "stateMutability": "nonpayable",
      "type": "function"
    },
    {
      "inputs": [
        {
          "internalType": "string",
          "name": "_userImageUri",
          "type": "string"
        }
      ],
      "name": "setUserProfileImage",
      "outputs": [],
      "stateMutability": "nonpayable",
      "type": "function"
    }
  ],
  "bytecode": "0x608060405234801561001057600080fd5b5061181f806100206000396000f3fe608060405234801561001057600080fd5b506004361061007d5760003560e01c80637c37a4f91161005b5780637c37a4f9146100d657806399315337146100f4578063b3af4a0714610128578063c8ab2d711461015c5761007d565b80630a106c3f146100825780635775912a1461009e57806359ee12bc146100ba575b600080fd5b61009c60048036038101906100979190610f3b565b610178565b005b6100b860048036038101906100b39190610f84565b6101d1565b005b6100d460048036038101906100cf9190610f3b565b610305565b005b6100de6105ed565b6040516100eb91906113ed565b60405180910390f35b61010e60048036038101906101099190610efb565b6109df565b60405161011f95949392919061132b565b60405180910390f35b610142600480360381019061013d9190610ece565b610af4565b604051610153959493929190611385565b60405180910390f35b61017660048036038101906101719190610f3b565b610cef565b005b806000803373ffffffffffffffffffffffffffffffffffffffff1673ffffffffffffffffffffffffffffffffffffffff16815260200190815260200160002060020190805190602001906101cd929190610d48565b5050565b60018060003373ffffffffffffffffffffffffffffffffffffffff1673ffffffffffffffffffffffffffffffffffffffff16815260200190815260200160002082815481106102235761022261171e565b5b906000526020600020906004020160020160006101000a81548160ff021916908315150217905550600160003373ffffffffffffffffffffffffffffffffffffffff1673ffffffffffffffffffffffffffffffffffffffff168152602001908152602001600020818154811061029c5761029b61171e565b5b90600052602060002090600402016040516102b79190611314565b60405180910390203373ffffffffffffffffffffffffffffffffffffffff167ff0291d3fce1bd5099d31c1ef1dfb1ee1b0b39f99cf09f936676e171217baff5060405160405180910390a350565b6000803373ffffffffffffffffffffffffffffffffffffffff1673ffffffffffffffffffffffffffffffffffffffff16815260200190815260200160002060060160009054906101000a900460ff16156105b8576000600160003373ffffffffffffffffffffffffffffffffffffffff1673ffffffffffffffffffffffffffffffffffffffff168152602001908152602001600020805490509050600160003373ffffffffffffffffffffffffffffffffffffffff1673ffffffffffffffffffffffffffffffffffffffff1681526020019081526020016000206040518060a001604052803373ffffffffffffffffffffffffffffffffffffffff16815260200184815260200160001515815260200160001515815260200183815250908060018154018082558091505060019003906000526020600020906004020160009091909190915060008201518160000160006101000a81548173ffffffffffffffffffffffffffffffffffffffff021916908373ffffffffffffffffffffffffffffffffffffffff16021790555060208201518160010190805190602001906104ae929190610d48565b5060408201518160020160006101000a81548160ff02191690831515021790555060608201518160020160016101000a81548160ff021916908315150217905550608082015181600301555050600160003373ffffffffffffffffffffffffffffffffffffffff1673ffffffffffffffffffffffffffffffffffffffff168152602001908152602001600020818154811061054c5761054b61171e565b5b90600052602060002090600402016040516105679190611314565b60405180910390203373ffffffffffffffffffffffffffffffffffffffff167fb822bd689270694b30617cf86df2abd96cf0e52d4728cda16dcf3ef3876d4b1460405160405180910390a3506105ea565b6040517f621247dc00000000000000000000000000000000000000000000000000000000815260040160405180910390fd5b50565b60606000600160003373ffffffffffffffffffffffffffffffffffffffff1673ffffffffffffffffffffffffffffffffffffffff1681526020019081526020016000208054905067ffffffffffffffff81111561064d5761064c61174d565b5b60405190808252806020026020018201604052801561068657816020015b610673610dce565b81526020019060019003908161066b5790505b5090506000805b600160003373ffffffffffffffffffffffffffffffffffffffff1673ffffffffffffffffffffffffffffffffffffffff168152602001908152602001600020805490508110156109255760001515600160003373ffffffffffffffffffffffffffffffffffffffff1673ffffffffffffffffffffffffffffffffffffffff168152602001908152602001600020828154811061072c5761072b61171e565b5b906000526020600020906004020160020160009054906101000a900460ff161515141561091257600160003373ffffffffffffffffffffffffffffffffffffffff1673ffffffffffffffffffffffffffffffffffffffff16815260200190815260200160002081815481106107a4576107a361171e565b5b90600052602060002090600402016040518060a00160405290816000820160009054906101000a900473ffffffffffffffffffffffffffffffffffffffff1673ffffffffffffffffffffffffffffffffffffffff1673ffffffffffffffffffffffffffffffffffffffff168152602001600182018054610823906115ac565b80601f016020809104026020016040519081016040528092919081815260200182805461084f906115ac565b801561089c5780601f106108715761010080835404028352916020019161089c565b820191906000526020600020905b81548152906001019060200180831161087f57829003601f168201915b505050505081526020016002820160009054906101000a900460ff161515151581526020016002820160019054906101000a900460ff161515151581526020016003820154815250508383815181106108f8576108f761171e565b5b6020026020010181905250818061090e90611677565b9250505b808061091d90611677565b91505061068d565b5060008167ffffffffffffffff8111156109425761094161174d565b5b60405190808252806020026020018201604052801561097b57816020015b610968610dce565b8152602001906001900390816109605790505b50905060005b828110156109d55783818151811061099c5761099b61171e565b5b60200260200101518282815181106109b7576109b661171e565b5b602002602001018190525080806109cd90611677565b915050610981565b5080935050505090565b600160205281600052604060002081815481106109fb57600080fd5b9060005260206000209060040201600091509150508060000160009054906101000a900473ffffffffffffffffffffffffffffffffffffffff1690806001018054610a45906115ac565b80601f0160208091040260200160405190810160405280929190818152602001828054610a71906115ac565b8015610abe5780601f10610a9357610100808354040283529160200191610abe565b820191906000526020600020905b815481529060010190602001808311610aa157829003601f168201915b5050505050908060020160009054906101000a900460ff16908060020160019054906101000a900460ff16908060030154905085565b60006020528060005260406000206000915090508060000160009054906101000a900473ffffffffffffffffffffffffffffffffffffffff1690806001018054610b3d906115ac565b80601f0160208091040260200160405190810160405280929190818152602001828054610b69906115ac565b8015610bb65780601f10610b8b57610100808354040283529160200191610bb6565b820191906000526020600020905b815481529060010190602001808311610b9957829003601f168201915b505050505090806002018054610bcb906115ac565b80601f0160208091040260200160405190810160405280929190818152602001828054610bf7906115ac565b8015610c445780601f10610c1957610100808354040283529160200191610c44565b820191906000526020600020905b815481529060010190602001808311610c2757829003601f168201915b505050505090806003018054610c59906115ac565b80601f0160208091040260200160405190810160405280929190818152602001828054610c85906115ac565b8015610cd25780601f10610ca757610100808354040283529160200191610cd2565b820191906000526020600020905b815481529060010190602001808311610cb557829003601f168201915b5050505050908060060160009054906101000a900460ff16905085565b806000803373ffffffffffffffffffffffffffffffffffffffff1673ffffffffffffffffffffffffffffffffffffffff1681526020019081526020016000206002019080519060200190610d44929190610d48565b5050565b828054610d54906115ac565b90600052602060002090601f016020900481019282610d765760008555610dbd565b82601f10610d8f57805160ff1916838001178555610dbd565b82800160010185558215610dbd579182015b82811115610dbc578251825591602001919060010190610da1565b5b509050610dca9190610e17565b5090565b6040518060a00160405280600073ffffffffffffffffffffffffffffffffffffffff16815260200160608152602001600015158152602001600015158152602001600081525090565b5b80821115610e30576000816000905550600101610e18565b5090565b6000610e47610e4284611434565b61140f565b905082815260208101848484011115610e6357610e62611781565b5b610e6e84828561156a565b509392505050565b600081359050610e85816117bb565b92915050565b600082601f830112610ea057610e9f61177c565b5b8135610eb0848260208601610e34565b91505092915050565b600081359050610ec8816117d2565b92915050565b600060208284031215610ee457610ee361178b565b5b6000610ef284828501610e76565b91505092915050565b60008060408385031215610f1257610f1161178b565b5b6000610f2085828601610e76565b9250506020610f3185828601610eb9565b9150509250929050565b600060208284031215610f5157610f5061178b565b5b600082013567ffffffffffffffff811115610f6f57610f6e611786565b5b610f7b84828501610e8b565b91505092915050565b600060208284031215610f9a57610f9961178b565b5b6000610fa884828501610eb9565b91505092915050565b6000610fbd838361103f565b60208301905092915050565b6000610fd583836110e1565b60208301905092915050565b6000610fed8383611162565b905092915050565b600061100183836111e2565b905092915050565b60006110158383611305565b60208301905092915050565b61102a81611522565b82525050565b61103981611522565b82525050565b61104881611522565b82525050565b60006110598261148a565b61106381856114ad565b93508360208202850161107585611465565b8060005b858110156110b157848403895281516110928582610ff5565b945061109d836114a0565b925060208a01995050600181019050611079565b50829750879550505050505092915050565b6110cc81611534565b82525050565b6110db81611534565b82525050565b6110ea81611534565b82525050565b60006110fb82611495565b61110581856114be565b9350611115818560208601611579565b61111e81611790565b840191505092915050565b600061113482611495565b61113e81856114cf565b935061114e818560208601611579565b61115781611790565b840191505092915050565b6000815461116f816115ac565b61117981866114e0565b9450600182166000811461119457600181146111a6576111d9565b60ff19831686526020860193506111d9565b6111af85611475565b60005b838110156111d1578154818901526001820191506020810190506111b2565b808801955050505b50505092915050565b600060a0830160008301516111fa6000860182611021565b506020830151848203602086015261121282826110f0565b915050604083015161122760408601826110c3565b50606083015161123a60608601826110c3565b50608083015161124d60808601826112e7565b508091505092915050565b6000808301600080840154905061126e816115de565b6112788682610fb1565b955050600184016112898682610fe1565b9550506002840154905061129c816115f8565b6112a68682610fc9565b9550506112b28161162c565b6112bc8682610fc9565b955050600384015490506112cf81611612565b6112d98682611009565b955050849250505092915050565b6112f081611560565b82525050565b6112ff81611560565b82525050565b61130e81611560565b82525050565b60006113208284611258565b915081905092915050565b600060a0820190506113406000830188611030565b81810360208301526113528187611129565b905061136160408301866110d2565b61136e60608301856110d2565b61137b60808301846112f6565b9695505050505050565b600060a08201905061139a6000830188611030565b81810360208301526113ac8187611129565b905081810360408301526113c08186611129565b905081810360608301526113d48185611129565b90506113e360808301846110d2565b9695505050505050565b60006020820190508181036000830152611407818461104e565b905092915050565b600061141961142a565b90506114258282611646565b919050565b6000604051905090565b600067ffffffffffffffff82111561144f5761144e61174d565b5b61145882611790565b9050602081019050919050565b6000819050602082019050919050565b60008190508160005260206000209050919050565b600081519050919050565b600081519050919050565b6000602082019050919050565b600082825260208201905092915050565b600082825260208201905092915050565b600082825260208201905092915050565b600081905092915050565b600073ffffffffffffffffffffffffffffffffffffffff82169050919050565b600060ff82169050919050565b6000819050919050565b600061152d82611540565b9050919050565b60008115159050919050565b600073ffffffffffffffffffffffffffffffffffffffff82169050919050565b6000819050919050565b82818337600083830152505050565b60005b8381101561159757808201518184015260208101905061157c565b838111156115a6576000848401525b50505050565b600060028204905060018216806115c457607f821691505b602082108114156115d8576115d76116ef565b5b50919050565b60006115f16115ec836117a1565b6114eb565b9050919050565b600061160b611606836117a1565b61150b565b9050919050565b6000611625611620836117a1565b611518565b9050919050565b600061163f61163a836117ae565b61150b565b9050919050565b61164f82611790565b810181811067ffffffffffffffff8211171561166e5761166d61174d565b5b80604052505050565b600061168282611560565b91507fffffffffffffffffffffffffffffffffffffffffffffffffffffffffffffffff8214156116b5576116b46116c0565b5b600182019050919050565b7f4e487b7100000000000000000000000000000000000000000000000000000000600052601160045260246000fd5b7f4e487b7100000000000000000000000000000000000000000000000000000000600052602260045260246000fd5b7f4e487b7100000000000000000000000000000000000000000000000000000000600052603260045260246000fd5b7f4e487b7100000000000000000000000000000000000000000000000000000000600052604160045260246000fd5b600080fd5b600080fd5b600080fd5b600080fd5b6000601f19601f8301169050919050565b60008160001c9050919050565b60008160081c9050919050565b6117c481611522565b81146117cf57600080fd5b50565b6117db81611560565b81146117e657600080fd5b5056fea2646970667358221220d4fd565ae20da669e6b8ecf930ba3e9e1972d1515e484e841f312f2562cfe29764736f6c63430008070033",
  "linkReferences": {},
  "deployedLinkReferences": {}
}